:0400000080312728FC
:1000060008007E14803120007F08F5008B1A0B1D36
:100016001028AB31FA23803122282100911E1A289C
:100026002000911E1A28AC31492480312228210053
:10003600111E22282000111E2228AC31D524750855
:100046002000FF007E10090080312928A830840096
:10005600263085004830FE000130FF009031002038
:100066008031F601F701F801F901FA01DC3084006C
:10007600003085000C30FE000030FF00903100207B
:1000860080312200E801E901A030840001308500BA
:100096002E30FE000030FF00903100208031873185
:1000A600FF27FB007E1020009531D32DAA302100BA
:1000B600B0003008BA002908B1002808B000A80A24
:1000C6000319A90A30088400310885000008B20027
:1000D6003208CC004C080319832D25304C06031931
:1000E6007F2826088600270887004C0881000130F3
:1000F600A6070030A73D5E28BB01BC0184283C153D
:100106009E282908B1002808B000A80A0319A90AE0
:1001160030088400310885000008CC00003A031935
:10012600832D583A03199E283E3A031982281E3A0F
:1001360003199E285E2800303B05B00007303C05B9
:10014600B100300831040319D82C0630BD00003048
:10015600BE003A0886008701403FC900413FCA00F9
:10016600423FCB000330B0003008BA0749082000F0
:10017600A00021004A082000A10021004B08200011
:10018600A2000030A3000030A4000030A500AF316B
:10019600C42780310318EE28210049082000A0005A
:1001A60021004A082000A10021004B082000A200DF
:1001B600983103208031200020082100C90020004A
:1001C60021082100CA00200022082100CB000330AC
:1001D600BB040030BC042100C301C4014B084A041F
:1001E60049040319BC29C93086008701403FB00085
:1001F600413FB100423FB200433FB3000F30B33638
:10020600B20CB10CB00C890B0229FF303005B400DA
:1002160000303105B5003408823EC300FF30353D5D
:10022600C400FF30C307FF30C43D03302000B000D8
:100236000030B100210044082000B300210043082B
:100246002000B200AC31B9248031200031082100F1
:10025600C400200030082100C3000A302000A70097
:100266000030A800210044082000AA00210043080D
:100276002000A900A231A7228031200028082100F1
:10028600C400200027082100C300C41F4E29FF30E8
:10029600C307FF30C43D4303FF3A853189258031CA
:1002A600200046082100C500200047082100C6009E
:1002B600200048082100C70049082000B600210098
:1002C6004A082000B70021004B082000B800210092
:1002D60045082000B900210046082000BA00210088
:1002E60047082000BB00A7314C2780312000360884
:1002F6002100C500200037082100C600200038086C
:100306002100C70045082000A00021004608200063
:10031600A100210047082000A2000030A300803081
:10032600A4003F30A500AF31C42780310318A029AF
:10033600FF302100C307FF30BB29210045082000FC
:10034600A000210046082000A10021004708200047
:10035600A2000030A3002030A4004130A500AF3138
:10036600C4278031031CBC2901302100C30700309B
:10037600C43D21003E08803AB00080303002031DA3
:10038600C6290D303D020318EF2921003D089031A2
:100396005F20803120004608D9004708DA00480867
:1003A600DB00210049082000DC0021004A0820006B
:1003B600DD0021004B082000DE009831C22080318C
:1003C600200059082100C90020005A082100CA004F
:1003D60020005B082100CB0021004408803AB000D1
:1003E60080303002031DF9290A3043020318222AFD
:1003F60021004B084A0449040319812A49082000B0
:10040600CF0021004A082000D00021004B08200020
:10041600D100A531952580312000520851045004A1
:100426004F04031D812A21004408803AB000803021
:100436003002031D202A02304302031C812A2100B8
:1004460045082000A000210046082000A100210048
:1004560047082000A2007030A3008930A400403075
:10046600A500AF31C427803103183B2AF7303C2A58
:10047600F8302100C307FF30C43D43088531892584
:100486008031200046082100C500200047082100D1
:10049600C600200048082100C70049082000A00027
:1004A60021004A082000A10021004B082000A200DC
:1004B600210045082000A300210046082000A400D2
:1004C600210047082000A50098310C20803120002B
:1004D60023082100C200200022082100C1002000BC
:1004E60021082100C000200020082100BF000030A4
:1004F600C9000030CA000030CB00D02A21004908CC
:100506002000CF0021004A082000D00021004B081F
:100516002000D100A5319525803120005208210008
:10052600C200200051082100C1002000500821000F
:10053600C00020004F082100BF0042082000AB0089
:10054600210041082000AA00210040082000A9003F
:1005560021003F082000A800AE312D268031200062
:1005660028082100A000200029082100A100200061
:100576002A082100A2004908A3004A08A4004B0843
:10058600A500AE318326803121002008C90021084C
:10059600CA002208CB00C301C401CC01CC0A0A3030
:1005A6004C060319032B4C08B000B101B035B10D50
:1005B600B035B10D003030078400A030313D8500E4
:1005C600003FB200013FB300023FB400033FB50055
:1005D60035084202031DF92A34084102031DF92A8F
:1005E60033084002031DF92A32083F02031C032B7D
:1005F6000130B0003008CC070A304C06031DD62A5D
:1006060003303B05B00000303C05B1003008310432
:100616000319172B26088600270887002D3081002E
:100626000130A6070030A73DFF30B0003008CC07E8
:100636004C0A03199B2B4C08B000B101B035B10D23
:10064600B035B10D003030078400A030313D850053
:10065600003F2000A000013FA100023FA200033F8F
:10066600A300210042082000A70021004108200025
:10067600A600210040082000A50021003F08200018
:10068600A40090310C208031200023082100C800EE
:10069600200022082100C700200021082100C600F2
:1006A600200020082100C50000302000A3000030F3
:1006B600A2000030A1000A30A00021004808200056
:1006C600A700210047082000A600210046082000B8
:1006D600A500210045082000A400A2311E22803179
:1006E600200023082100C800200022082100C7009E
:1006F600200021082100C600200020082100C50096
:100706004508303EB00026088600270887003008D6
:10071600122B21002608860027088700303081002A
:100726000130A6070030A73DFF30C307FF30C43DA8
:100736004408803AB00080303002031DA42B0130FB
:10074600430203188C2B21003E08803AB00080300B
:100756003002031DB02B09303D02031CB52B0830B7
:100766002100B72B21003D08B0003008CC004C0812
:10077600B000B101B01BB1033008BD023108BE3B69
:100786004C080319D02B26088600270887002E3030
:1007960081000130A6070030A73D4C088531892528
:1007A6008031200046082100B600200047082100BD
:1007B600B700200048082100B80036082000B9001C
:1007C600210037082000BA00210038082000BB00AD
:1007D600210049082000B60021004A082000B70081
:1007E60021004B082000B800A7314C27803120009B
:1007F6003608CF003708D0003808D100A531952536
:100806008031200052082100C2002000510821003A
:10081600C100200050082100C00020004F08210020
:10082600BF00FF30B0003008CC074C0A0319D32CA8
:100836004C08B000B101B035B10DB035B10D003086
:1008460030078400A030313D8500003F2000A00025
:10085600013FA100023FA200033FA300210042087E
:100866002000A700210041082000A6002100400822
:100876002000A50021003F082000A40090310C2094
:100886008031200023082100C80020002208210012
:10089600C700200021082100C600200020082100F2
:1008A600C50000302000A3000030A2000030A100E7
:1008B6000A30A000210048082000A70021004708B0
:1008C6002000A600210046082000A50021004508BA
:1008D6002000A400A2311E2280312000230821001E
:1008E600C800200022082100C7002000210821009E
:1008F600C600200020082100C5004508303EB00093
:100906002608860027088700300881000130A607E0
:100916000030A73D4C08B000B101B035B10DB0357F
:10092600B10D003030078400A030313D8500003F16
:100936002000A000013FA100023FA200033FA30048
:10094600210042082000A700210041082000A6003F
:10095600210040082000A50021003F082000A40037
:10096600A2311E228031200023082100C20020006F
:1009760022082100C100200021082100C00020001B
:100986002008122C260886002708870030308100B0
:100996000130A6070030A73DFF30BD07FF30BE3D42
:1009A6003D083E0403195E28C52C3A0886008701D7
:1009B600403FB000413FB1003008BF003108C000E1
:1009C600C101C2010230B0003008BA07CC01CC0A1E
:1009D60008304C0603191C2D4C08B000B101B03587
:1009E600B10DB035B10D763030078400A030313D01
:1009F6008500003FB200013FB300023FB400033F51
:100A0600B50035084202031D122D34084102031DAC
:100A1600122D33084002031D122D32083F02031C1B
:100A26001C2D0130B0003008CC0708304C06031DE1
:100A3600EF2C03303B05B00000303C05B100300818
:100A460031040319302D26088600270887002D302B
:100A560081000130A6070030A73D4C08BD00BE014D
:100A6600BD1BBE03FF30BD07FF30BE3D3D0A031967
:100A76003E0A03195E283E0885003D088400843539
:100A8600850D8435850D76308407A030853D003F81
:100A96002000A000013FA100023FA200033FA300E7
:100AA600210042082000A700210041082000A600DE
:100AB600210040082000A50021003F082000A400D6
:100AC60090310C208031200020080F392100B00021
:100AD6003008B9003908EC3E8400A0300318013E06
:100AE60085000008B0003008CC00260886002708DC
:100AF60087004C0881000130A6070030A73D352D40
:100B06002608860027088700810108002000CE00FD
:100B1600CE1FAF2ECE09CE0A4E08803A123E031CD7
:100B2600332E0A30A7000030A8004E08A200A30109
:100B3600A21BA3036430A0000030A100A2316122F1
:100B4600853120002108AA002008A900A231A72289
:100B5600853120002708093EB0000030283DB1004D
:100B66000330B2000030B300AC31B9248531200027
:100B7600310885003008840028308407A030853D80
:100B8600003FB600013FB700023FB8006430A7003F
:100B96000030A8004E08A900AA01A91BAA03A23189
:100BA600A722853120002708123EB0000030283DDC
:100BB600B1000330B2000030B300AC31B924853146
:100BC6002000310885003008840028308407A030D2
:100BD600853D003FB900013FBA00023FBB00A73187
:100BE6004C27853120003608CB003708CC00380862
:100BF600CD004E08A200A301A21BA3030A30A00049
:100C06000030A100A2316122853120002108B10007
:100C16002008B0000330B2000030B300AC31B92474
:100C2600853120003108850030088400283084078B
:100C3600A030853D003FB600013FB700023FB80037
:100C46004B08B9004C08BA004D08BB00A7314C2729
:100C560020003608C6003708C7003808C800080054
:100C66004E08803A753E031C922E4E08A200A30140
:100C7600A21BA3030A30A0000030A100A23161220A
:100C8600853120002108B1002008B0000330B200F1
:100C96000030B300AC31B92485312000310885001D
:100CA6003008840028308407A030853D003FB60018
:100CB600013FB700023FB8000A30A7000030A80085
:100CC6004E08A900AA01A91BAA03A231A7228531B1
:100CD60020002708093EB0000030283DB10003304F
:100CE600B2000030B300AC31B924853120003108A0
:100CF60085003008840028308407A030853D003FF9
:100D0600B900013FBA00023FBB00A7314C272000C3
:100D16003608C6003708C7003808C80008004E085D
:100D2600C900CA014908B0004A08B1000330B20040
:100D36000030B300AC31B9242000310885003008FA
:100D4600840028308407A030853D003FC600013F5F
:100D5600C700023FC80008004E08803A123E031C36
:100D6600532F0A30A7000030A8004E08A200A301A6
:100D7600A21BA3036430A0000030A100A2316122AF
:100D8600853120002108AA002008A900A231A72247
:100D9600853120002708093EB0000030283DB1000B
:100DA6000330B2000030B300AC31B92485312000E5
:100DB60031088500300884004F308407A030853D17
:100DC600003FB600013FB700023FB8006430A700FD
:100DD6000030A8004E08A900AA01A91BAA03A23147
:100DE600A722853120002708123EB0000030283D9A
:100DF600B1000330B2000030B300AC31B924853104
:100E0600200031088500300884004F308407A03068
:100E1600853D003FB900013FBA00023FBB00A73144
:100E26004C27853120003608CB003708CC0038081F
:100E3600CD004E08A200A301A21BA3030A30A00006
:100E46000030A100A2316122853120002108B100C5
:100E56002008B0000330B2000030B300AC31B92432
:100E66008531200031088500300884004F30840722
:100E7600A030853D003FB600013FB700023FB800F5
:100E86004B08B9004C08BA004D08BB00A7314C27E7
:100E960020003608C6003708C7003808C800080012
:100EA6004E08803A753E031CB22F4E08A200A301DD
:100EB600A21BA3030A30A0000030A100A2316122C8
:100EC600853120002108B1002008B0000330B200AF
:100ED6000030B300AC31B9248531200031088500DB
:100EE600300884004F308407A030853D003FB600AF
:100EF600013FB700023FB8000A30A7000030A80043
:100F06004E08A900AA01A91BAA03A231A72285316E
:100F160020002708093EB0000030283DB10003300C
:100F2600B2000030B300AC31B9248531200031085D
:100F36008500300884004F308407A030853D003F8F
:100F4600B900013FBA00023FBB00A7314C27200081
:100F56003608C6003708C7003808C80008004E081B
:100F6600C900CA014908B0004A08B1000330B200FE
:100F76000030B300AC31B9242000310885003008B8
:100F860084004F308407A030853D003FC600013FF6
:100F9600C700023FC800080000302000AB00003048
:100FA600AA000030A9000030A800201CE22F240867
:100FB600A8072508A93D2608AA3D2708AB3D01300C
:100FC600A435A50DA60DA70D890BE32F0130A33679
:100FD600A20CA10CA00C890BEA2F230822042104E1
:100FE6002004031DD82F2B08A3002A08A2002908D5
:0A0FF600A1002808A00008000A343A
:10100400210020082000A900210021082000AA00B6
:10101400210022082000AB00AD3172258831200068
:1010240029082100AE0020002A082100AF0020007A
:101034002B082100B00030082F042E04031D29289A
:101044000030A0000030A1000030A20008000030F1
:101054002000A0008030A1003F30A20021002E0813
:101064002000A30021002F082000A4002100300844
:101074002000A500AF31C42788310318432801306C
:10108400442800302100A3002308AA002A080319D9
:101094006B282E082000C60021002F082000C7005E
:1010A400210030082000C8000030C9008030CA0088
:1010B4003F30CB00A631A32688312000460821000A
:1010C400AE00200047082100AF002000480821009E
:1010D400B0002E082000B60021002F082000B70021
:1010E400210030082000B80021002E082000B9009B
:1010F40021002F082000BA00210030082000BB0086
:10110400A7314C278831200036082100AB0020008D
:1011140037082100AC00200038082100AD002B085E
:101124002000E60021002C082000E70021002D0803
:101134002000E800A830E900A030EA000430EB0009
:101144000030EC00A231F922883120006608210029
:10115400A400200067082100A500200068082100E1
:10116400A6002B082000E60021002C082000E70040
:1011740021002D082000E8009630E900A030EA00A4
:101184000530EB000030EC00A231F9228831200058
:1011940066082100A700200067082100A80020009D
:1011A40068082100A90027082000C9002100280898
:1011B4002000CA00210029082000CB0021002408B7
:1011C4002000C600210025082000C70021002608B1
:1011D4002000C800A631A326883120004608B600A6
:1011E4004708B7004808B80021002E082000B900BD
:1011F40021002F082000BA00210030082000BB0085
:10120400A7314C278831200036082100AE00200089
:1012140037082100AF00200038082100B0002A0858
:101224000319402910302000D900C930DA003F30BA
:10123400DB0021002E082000A00021002F08200040
:10124400A100210030082000A20098310320883139
:1012540020002008DC002108DD002208DE0098318F
:10126400C2208831200059082100AE0020005A080D
:101274002100AF0020005B082100B00020082000FE
:10128400A000210021082000A10021002208200044
:10129400A2000030A3000030A4000030A500AF314C
:1012A400C4278831031C5E2921002E08A0002F08C2
:1012B400A1003008A200080021002E082000A00090
:1012C40021002F082000A100210030082000A200E6
:1012D40098310320200020082100A00020002108CC
:1012E4002100A100200022082100A2000800200003
:1012F4006708031984296708860087016508C03FC9
:101304006608C13F65088600660887000108210059
:10131400AE00A13150218931031C962901302000EF
:10132400E5070030E63D84292100AF012D302E066B
:10133400031D9F29AF01AF0AA4292B3021002E06DB
:10134400031DA92901302000E5070030E63D2100F6
:10135400AE010030B4000030B3000030B200003001
:10136400B100B001C5292000650886006608870021
:101374002E300106031DC82921002F16013020003C
:10138400E5070030E63D21002F1EB5292000650841
:101394008600660887000108AB315E238931031C8F
:1013A400512A2100AF140530AC000030AD002E08E6
:1013B4002000E800E901E81BE90321002C08033EB2
:1013C4002000EA00003021002D3D2000EB006908D8
:1013D4006B06031DEF2968086A060319472A2100D2
:1013E4002F1EFA29FF302000E80068082100B0070A
:1013F40001302000E80068082100AE07003020001A
:10140400A3000030A2000030A1000A30A000210097
:1014140034082000A700210033082000A600210082
:1014240032082000A500210031082000A4008731E3
:10143400CF278931200023082100B400200022088E
:101444002100B300200021082100B2002000200860
:101454002100B100200065088600660887000108A5
:10146400D03EE800E901EA01EB0168082100B10778
:10147400200069082100B23D20006A082100B33D24
:1014840020006B082100B43DC02921002F1AC02977
:1014940001302000E80068082100B007C0292100BD
:1014A400AE012000650886006608870065300106E5
:1014B4000319642A6508860066088700453001061A
:1014C400031DEB2A0130E5070030E63D6508860080
:1014D400660887002D300106031D752A2100AF150B
:1014E400013020007E2A65088600660887002B30BC
:1014F4000106031D812A0130E5070030E63D650839
:101504008600660887003030010603197D2A6508C5
:101514008600660887000108AB315E238931031C0D
:10152400E62A200065088600660887000108D03E88
:10153400E80068082100AE0001302000E507003013
:10154400E63D65088600660887000108AB315E2326
:101554008931031CE62A2000650886006608870096
:101564000A30E8006808A00021002E08AB318D2362
:1015740089310107D03E2000E90069082100AE004E
:1015840001302000E5070030E63D65088600660866
:1015940087000108AB315E238931031CE62A200051
:1015A40065088600660887000A30E8006808A0001D
:1015B40021002E08AB318D2389310107D03E200054
:1015C400E90069082100AE002100AF1DEB2AAE0935
:1015D400AE0A21002E082000E80068082100B007A8
:1015E400200067080319012B2100AF1C012B2000E8
:1015F4006708860087016508C03F6608C13F21006F
:1016040034082000E000210033082000DF0021001E
:1016140032082000DE00210031082000DD00A13165
:101624006321893120005D082100B10020005E089B
:101634002100B20020005F082100B3003308320407
:101644003104031D2D2B00302000E5000030E6009E
:101654000030E7000800B01FD22BB009B00A3008F0
:10166400803A763E031C872B03302000C6001530D9
:10167400C7005030C800210031082000C9002100F3
:1016840032082000CA00210033082000CB00A63114
:10169400A3268931200046082100B1002000470814
:1016A4002100B200200048082100B300F6302000D9
:1016B400E80068082100B007312B00302000C60084
:1016C4002030C7004130C800210031082000C90083
:1016D400210032082000CA00210033082000CB007A
:1016E400A631A3268931200046082100B10020003C
:1016F40047082100B200200048082100B300FF3051
:101704002000E80068082100B0073008031D5F2BA3
:101714000030A0008030A1000030A2003108200079
:10172400A000210032082000A1002100330820007D
:10173400A200210020082000A3002100210820008D
:10174400A400210022082000A500AF31C42789315C
:101754000318792C21002F1CCA2B0030A3008030E1
:10176400A4000030A50023082000A00021002408C4
:101774002000A100210025082000A20098310320A8
:1017840020002008E5002108E6002208E700080000
:1017940000302000E5008030E6000030E70008005B
:1017A40021003008803A7F3E0318012C792C033045
:1017B4002000B6001530B7005030B80021003108C1
:1017C4002000B900210032082000BA0021003308AB
:1017D4002000BB00A7314C278931200036082100A6
:1017E400B100200037082100B20020003808210091
:1017F400B300F6302000E80068082100B0070A3082
:101804003002031C2E2CD92B00302000B6002030CF
:10181400B7004130B800210031082000B900210090
:1018240032082000BA00210033082000BB00A73191
:101834004C278931200036082100B10020003708E8
:101844002100B200200038082100B300FF3020003E
:10185400E80068082100B0073008031D062CFF309B
:10186400A6007F30A7007F30A80026082000A00033
:10187400210027082000A100210028082000A20040
:10188400210031082000A300210032082000A40018
:10189400210033082000A500AF31C4278931031883
:1018A400792C21002F1C712C0030A9008030AA0053
:1018B4000030AB0029082000A00021002A082000E5
:1018C400A10021002B082000A20098310320200051
:1018D4002008E5002108E6002208E700080000309F
:1018E4002000E5008030E6000030E7000800210019
:1018F4002F1C952C31082000A00021003208200064
:10190400A100210033082000A20098310320200008
:1019140020082100B100200021082100B20020008D
:1019240022082100B30031082000E500210032081C
:101934002000E600210033082000E7000800210011
:101944004F082000D600210050082000D7002100B5
:1019540051082000D800AD31DF258C312000560815
:101964002200CA00200057082200CB00200058089B
:101974002200CC00210052082000D6002100530888
:101984002000D700210054082000D800AD31DF2505
:101994008C31200056082200CD0020005708220078
:1019A400CE00200058082200CF0021005508200056
:1019B400D600210056082000D70021005708200037
:1019C400D800AD31DF258C31200056082200D30029
:1019D400200057082200D400200058082200D50017
:1019E400210058082000D600210059082000D70003
:1019F40021005A082000D800AD31DF258C312000A9
:101A040056082200D000200057082200D1002000F0
:101A140058082200D20050082000D90022005108A2
:101A24002000DA00220052082000DB0022004D08CA
:101A34002000A00022004E082000A10022004F0830
:101A44002000A200983103208C3120002008DC0003
:101A54002108DD002208DE009831C2208C312000EC
:101A640059082200C10020005A082200C2002000A8
:101A74005B082200C30041082100A600220042089E
:101A84002100A700220043082100A8009C311C2447
:101A94008C31210026082200C400210027082200DE
:101AA400C500210028082200C60053082100B40004
:101AB400220054082100B500220055082100B60078
:101AC400A43194248C31210034082200C700210061
:101AD40035082200C800210036082200C900440845
:101AE4002000B600220045082000B7002200460866
:101AF4002000B800220047082000B900220048084E
:101B04002000BA00220049082000BB00A7314C275E
:101B14008C312000380837043604031DBE2D220002
:101B24004A082000A00022004B082000A100220047
:101B34004C082000A200220053082000A300220029
:101B440054082000A400220055082000A500AF314D
:101B5400C4278C310318B62D00302100CF0000308B
:101B6400D0000030D100080000302100CF00343014
:101B7400D0004330D1000800220050082000D900D2
:101B8400220051082000DA00220052082000DB0065
:101B940022004D082000A00022004E082000A100D1
:101BA40022004F082000A200983103208C3120002D
:101BB4002008DC002108DD002208DE009831C22064
:101BC4008C31200059082200C10020005A0822004C
:101BD400C20020005B082200C30041082100A600C7
:101BE400220042082100A700220043082100A80087
:101BF4009C311C248C31210026082200C4002100C1
:101C040027082200C500210028082200C600530826
:101C14002100B400220054082100B5002200550818
:101C24002100B600A43194248C3121003408220010
:101C3400C700210035082200C80021003608220010
:101C4400C9004A082100A60022004B082100A70071
:101C540022004C082100A8009C311C248C31210056
:101C640026082200A300210027082200A400210046
:101C740028082200A50053082100B40022005408BB
:101C84002100B500220055082100B600A431942497
:101C94008C31210034082200A600210035082200DE
:101CA400A700210036082200A8004D082000A0004B
:101CB40022004E082000A10022004F082000A200AC
:101CC400983103208C3120002008DC002108DD003D
:101CD4002208DE00220050082000D900220051080A
:101CE4002000DA00220052082000DB009831C220D4
:101CF4008C31200059082200A90020005A08220033
:101D0400AA0020005B082200AB0023082000B900D1
:101D1400220024082000BA00220025082000BB006D
:101D2400220026082000B600220027082000B70061
:101D3400220028082000B800A7314C278C3120004D
:101D440036082200AC00200037082200AD00200035
:101D540038082200AE0029082100B40022002A0815
:101D64002100B50022002B082100B600A4319424E0
:101D74008C31210034082200AF00210035082200F4
:101D8400B000210036082200B1004A082100B40046
:101D940022004B082100B50022004C082100B600A7
:101DA400A43194248C31210034082200B200210093
:101DB40035082200B300210036082200B40053087D
:101DC4002100A600220054082100A7002200550883
:101DD4002100A8009C311C248C31210026082200FB
:101DE400B500210027082200B6002100280822009F
:101DF400B70044082000B600220045082000B700C0
:101E0400220046082000B800220047082000B9003C
:101E1400220048082000BA00220049082000BB0024
:101E2400A7314C278C31200036082200B80020004E
:101E340037082200B900200038082200BA002C0814
:101E44002000B90022002D082000BA0022002E082C
:101E54002000BB0022002F082000B600220030081A
:101E64002000B700220031082000B800A7314C2719
:101E74008C3120003608A0003708A1003808A200E1
:101E8400983103208C3120002008D9002108DA0081
:101E94002208DB00220032082000B60022003308AA
:101EA4002000B700220034082000B80022003508C2
:101EB4002000B900220036082000BA0022003708AA
:101EC4002000BB00A7314C278C3120003608DC00F1
:101ED4003708DD003808DE009831C2208C3120003C
:101EE40059082200BB0020005A082200BC00200030
:101EF4005B082200BD0038082100BA00220039081E
:101F04002100BB0022003A082100BC0022003B084B
:101F14002100BD0022003C082100BE0022003D0833
:101F24002100BF009331CC238C3121003A082200D8
:101F3400A00021003B082200A10021003C0822004F
:101F4400A20000302000D900B430DA004330DB00B6
:101F54001030C6004930C7004030C8000030B60019
:101F64003430B7004330B800220020082000B90004
:101F7400220021082000BA00220022082000BB0011
:101F8400A7314C278C3120003608C9003708CA0015
:101F94003808CB00A631A3268C3120004608DC008B
:101FA4004708DD004808DE009831C2208C3120004B
:101FB40059082200BE0020005A082200BF00200059
:101FC4005B082200C0003E082100A00022003F0858
:101FD4002100A100220040082100A2000030A3003B
:101FE400B430A4004330A500A6311C2621002008EB
:101FF400CF002108D0002208D1000800640080012D
:1020040001310130FE020030FF3B7F087E040319DA
:102014000034012800302000AC000030AB00003058
:10202400AA000030A9002308220421042004031973
:102034005628AD01AD0AA31B2B280130A035A10DF4
:10204400A20DA30D890B20280130A8002808AD0794
:102054001D280130A935AA0DAB0DAC0D890B2C2818
:1020640023082702031D402822082602031D4028B6
:1020740021082502031D402820082402031C4B28A4
:102084002008A4022108A53B2208A63B2308A73B5D
:1020940029140130A336A20CA10CA00C890B4C28E6
:1020A4000130AD02031D2B282C08A3002B08A2002D
:1020B4002A08A1002908A00008002000D3006E30DF
:1020C4005302031C20290A30A7000030A80053083B
:1020D400C900CA014908A2004A08A3006430A0004C
:1020E4000030A100A2316122903120002108AA0011
:1020F4002008A900A231A722903120002708093E18
:10210400B0000030283DB1000330B2000030B3000D
:10211400AC31B924903120003108850030088400A6
:1021240028308407A030853D003FB600013FB7004A
:10213400023FB8006430A7000030A8005308CB0069
:10214400CC014B08A9004C08AA00A231A722903167
:1021540020002708123EB0000030283DB1000330B3
:10216400B2000030B300AC31B92490312000310802
:1021740085003008840028308407A030853D003F66
:10218400B900013FBA00023FBB00A7314C27903190
:1021940020003608D0003708D1003808D200530890
:1021A400C900CA014908A2004A08A3000A30A000D5
:1021B4000030A100A2316122903120002108B10039
:1021C4002008B0000330B2000030B300AC31B924B1
:1021D40090312000310885003008840028308407BD
:1021E400A030853D003FB600013FB700023FB80074
:1021F4005008B9005108BA005208BB00A7314C2757
:10220400903120003608CD003708CE003808CF00C2
:102214000030B6000030B7003F30B8004D08B900B8
:102224004E08BA004F08BB00A7314C2720003608DF
:10223400C6003708C7003808C80008000B3053022E
:10224400031C98295308C900CA014908A2004A0876
:10225400A3000A30A0000030A100A2316122903115
:1022640020002108B1002008B0000330B200003083
:10227400B300AC31B9249031200031088500300816
:10228400840028308407A030853D003FB600013F1C
:10229400B700023FB8000A30A7000030A800530876
:1022A400CB00CC014B08A9004C08AA00A231A722FC
:1022B400903120002708093EB0000030283DB100CD
:1022C4000330B2000030B300AC31B92490312000A7
:1022D400310885003008840028308407A030853D0B
:1022E400003FB900013FBA00023FBB00A7314C27B1
:1022F400903120003608D0003708D1003808D200C9
:102304000030B6000030B7003F30B8005008B900C4
:102314005108BA005208BB00A7314C2720003608E8
:10232400C6003708C7003808C80008000030B600E7
:102334000030B7003F30B8005308C900CA0149084B
:10234400B0004A08B1000330B2000030B300AC3131
:10235400B9249031200031088500300884002830E9
:102364008407A030853D003FB900013FBA00023F19
:10237400BB00A7314C2720003608C6003708C70029
:102384003808C8000800220023082000D9002200D1
:1023940024082000DA00220025082000DB002200A7
:1023A40029082000A00022002A082000A100220001
:1023B4002B082000A200983103209131200020082E
:1023C400DC002108DD002208DE009831C2209131B2
:1023D400200059082200AD0020005A082200AE0057
:1023E40020005B082200AF0026082000D60022004F
:1023F40027082000D700220028082000D800AD318B
:10240400DF259131200056082100B4002000570830
:102414002100B500200058082100B600A4319424FE
:102424009131210034082200B00021003508220037
:10243400B100210036082200B20020082000D60096
:10244400220021082000D700220022082000D80002
:10245400AD31DF259131200056082100B400200061
:1024640057082100B500200058082100B600A43107
:1024740094249131210034082200B300210035084E
:102484002200B400210036082200B5002D082000E7
:10249400D60022002E082000D70022002F0820009A
:1024A400D800AD31DF259131200056082100B40059
:1024B400200057082100B500200058082100B6006C
:1024C400A43194249131210034082200B600210063
:1024D40035082200B700210036082200B800300871
:1024E4002000B600220031082000B7002200320884
:1024F4002000B800220033082000B900220034086C
:102504002000BA00220035082000BB00A7314C2768
:102514009131200036082200B9002000370822003B
:10252400BA00200038082200BB0026082000D6008C
:10253400220027082000D700220028082000D80005
:10254400AD31DF259131200056082100A60020007E
:1025540057082100A700200058082100A8009C313A
:102564001C249131210026082200BC0021002708E8
:102574002200BD00210028082200BE0020082000FF
:10258400D600220021082000D700220022082000C3
:10259400D800AD31DF259131200056082100A60076
:1025A400200057082100A700200058082100A80097
:1025B4009C311C249131210026082200BF002100F7
:1025C40027082200C000210028082200C100360884
:1025D4002000B600220037082000B7002200380887
:1025E4002000B800220039082000B90022003A086F
:1025F4002000BA0022003B082000BB00A7314C2772
:10260400913120003608D9003708DA003808DB0099
:1026140022003C082000B60022003D082000B7003C
:1026240022003E082000B80022003F082000B90024
:10263400220040082000BA00220041082000BB000C
:10264400A7314C27913120003608DC003708DD0023
:102654003808DE009831C220913120005908220048
:10266400C20020005A082200C30020005B08220098
:10267400C40042082100D100220043082100D200F6
:10268400220044082100D300A131A021913121006E
:1026940051082200C200210052082200C300210078
:1026A40053082200C40042082000D6002200430838
:1026B4002000D700220044082000D800AE310626AE
:1026C4009131200056082200C20020005708220041
:1026D400C300200058082200C4002E302000B60099
:1026E4008A30B7004230B800220042082000B90006
:1026F400220043082000BA00220044082000BB0046
:10270400A7314C279131200036082200C200200056
:1027140037082200C300200038082200C400BA2B66
:10272400FF302000B600CD309B2B4F302000B60088
:102734005E30B7003F30B800220042082000B900E4
:10274400220043082000BA00220044082000BB00F5
:10275400A7314C279131200036082200C200200006
:1027640037082200C300200038082200C400C52B0B
:102774002C084B3A0319922B063A0319C52B033A3A
:102784000319972BC52B4208A0004308A100440855
:10279400A200080021003F083E043D04031D0C2C48
:1027A4003C083B043A04031DE42B21302200E800DA
:1027B4000030E90000302100BA000030BB000030D6
:1027C400BC00080000302000A0000030A100003050
:1027D400A20021003A082000A30021003B082000A9
:1027E400A40021003C082000A500AF31C427933188
:1027F4000318042C10302100BA00C930BB003F304C
:10280400BC00080010302100BA00C930BB00BF3042
:10281400BC0008003C083B043A04031D392C00307A
:102824002000A0000030A1000030A20021003D08DB
:102834002000A30021003E082000A40021003F083E
:102844002000A500AF31C42793310318312C003088
:102854002100BA000030BB000030BC00080010307A
:102864002100BA004930BB004030BC0008003D08DC
:102874002000A90021003E082000AA0021003F08F2
:102884002000AB00AD3172259331200029082100CE
:10289400C00020002A082100C10020002B082100CC
:1028A400C2003A082000A90021003B082000AA0029
:1028B40021003C082000AB00AD317225933120008B
:1028C40029082100C30020002A082100C400200098
:1028D4002B082100C50040082000A0002100410869
:1028E4002000A100210042082000A200210043088A
:1028F4002000A300210044082000A4002100450872
:102904002000A500AF31C4279331031C2D2D2100D5
:102914003D082000C60021003E082000C700210019
:102924003F082000C80021003A082000C900210007
:102934003B082000CA0021003C082000CB00A6313F
:10294400A3269331200046082100C900200047082F
:102954002100CA00200048082100CB004908A0003B
:102964004A08A1004B08A2008831022093312100BB
:102974002008CC002108CD002208CE003D0820000C
:10298400A00021003E082000A10021003F082000F3
:10299400A2000030A3000030A4000030A500AF3135
:1029A400C42793310318252D21003A082000A000E4
:1029B40021003B082000A10021003C082000A200C7
:1029C4000030A3000030A4000030A500AF31C427BC
:1029D4009331031C0F2D10302000D9004930DA0048
:1029E4004030DB0021004C082000DC0021004D08B1
:1029F4002000DD0021004E082000DE009831C220B6
:102A04009331200059082100CC0020005A082100ED
:102A1400CD0020005B082100242D10302100A000EF
:102A24004930A1004030A2004C08A3004D08A40086
:102A34004E08A500AE31832621002008CC002108D1
:102A4400CD002208CE0021004C08BA004D08BB007E
:102A54004E08BC00080021003D082000C9002100E8
:102A64003E082000CA0021003F082000CB002100BE
:102A74003A082000C60021003B082000C7002100BE
:102A84003C082000C800A631A32693312000460844
:102A94002100C900200047082100CA00200048087E
:102AA4002100CB004908A0004A08A1004B08A2005D
:102AB40088310220933121002008C6002108C70074
:102AC4002208C80046082000A00021004708200072
:102AD400A100210048082000A2009831032093316E
:102AE400200020082100CC00200021082100CD0076
:102AF400200022082100CE003A082000A000210076
:102B04003B082000A10021003C082000A200003066
:102B1400A3000030A4000030A500AF31C4279331D6
:102B24000318AB2D10302100A000C930A1003F30A4
:102B3400A2004C08A3004D08A4004E08A500AE3125
:102B44008326933121002008CC002108CD002208DF
:102B5400CB2D10302000D900C930DA003F30DB0023
:102B640021004C082000DC0021004D082000DD007D
:102B740021004E082000DE009831C22020005908B0
:102B84002100CC0020005A082100CD0020005B0861
:102B94002100CE004C08BA004D08BB004E08BC0012
:102BA4000800AD31512595318B170B17AE31B12685
:102BB40095310E302000A200A130A300AB31CA230E
:102BC4009531FD302000A800A030A900C0302100BC
:102BD400DB005B082000AA00AB01AC319D249531D9
:102BE400E8302000A3000330A400AD3195259531D1
:102BF400AE3157269531003A0319FA2DA83020003A
:102C0400A0002630A100AF318A279531A8302000DA
:102C1400A2002630A300AB31B4239531A8302100A3
:102C2400A6002630A7001C30A800A130A90010304F
:102C3400AA000030AB00803159209531A830200023
:102C4400A8002630A90080302100DB005B082000AA
:102C5400AA00AB01AC3181249531A8302000A0003A
:102C64002630A1002C302100DB005B082000A200EC
:102C7400A33159239531A8302000A0002630A100AB
:102C8400A201A20AAF3150279531A8302000EC00F0
:102C94002630ED00AB317D23953120006C082200F5
:102CA400DC0020006D082200DD0020006E082200F8
:102CB400DE00A8302100A6002630A7003230A8008C
:102CC400A130A90022005C082100AA0022005D08AE
:102CD4002100AB0022005E082100AC0080315920A5
:102CE4009531A8302000A8002630A90080302100AA
:102CF400DB005B082000AA00AB01AC3181249531D4
:102D0400A8302000A0002630A10002302100DB0002
:102D14005B082000A200AF3150279531A830200075
:102D2400EC002630ED00AB317D23953120006C089A
:102D34002200DF0020006D082200E00020006E0861
:102D44002200E100A8302100A6002630A700283088
:102D5400A800A130A90022005F082100AA002200D7
:102D640060082100AB00220061082100AC00803122
:102D740059209531A8302000A8002630A900C03081
:102D84002100DB005B082000AA00AB01AC318124E8
:102D94009531A8302000A0002630A1000330210086
:102DA400DB005B082000A200AF3150279531A8302A
:102DB4002000EC002630ED00AB317D23953120005E
:102DC4006C082200E20020006D082200E3002000CD
:102DD4006E082200E400A8302100A6002630A700D7
:102DE4004630A800A130A900220062082100AA00F0
:102DF400220063082100AB00220064082100AC001B
:102E0400803159209531A8302000A8002630A9002F
:102E140094302100DB005B082000AA00AB01AC3138
:102E240081249531A8302000A0002630A100043070
:102E34002100DB005B082000A200AF315027953150
:102E4400A8302000EC002630ED00AB317D23953115
:102E540020006C082200E50020006D082200E60036
:102E640020006E082200E700A8302100A6002630CA
:102E7400A7003C30A800A130A90022006508210069
:102E8400AA00220066082100AB0022006708210086
:102E9400AC00803159209531A8302000A80026309C
:102EA400A900D4302100DB005B082000AA00AB019C
:102EB400AC318124953122005C08A0005D08A1009A
:102EC4005E08A2005F08A3006008A4006108A500D2
:102ED4006208A6006308A7006408A8006508A900A2
:102EE4006608AA006708AB006B302100DB005B08B2
:102EF4002200AC009131C521953122002008D60072
:102F04002108D7002208D8005C082100CF00220045
:102F14005D082100D00022005E082100D1002200BB
:102F24005F082100D200220060082100D3002200A3
:102F340061082100D400220062082100D50022008B
:102F440063082100D600220064082100D700220073
:102F540065082100D800220066082100D90022005B
:102F640067082100DA008C31A124953121004F0833
:102F74002200D900210050082200DA002100510863
:102F84002200DB00A8302100A6002630A700D230A2
:102F9400A800A030A900220056082100AA0022009F
:102FA40057082100AB00220058082100AC00220081
:102FB40059082100AD0022005A082100AE00220069
:102FC4005B082100AF00803159209531A8302000E2
:102FD400A8002630A90080302100DB005B08200017
:102FE400AA00AB01AC3181249531A8302000A200A5
:102FF4002630A300AB31B4239531FA2D20001C15E3
:10300400080020002208210420040319080080304D
:10301400A206080020002008A6002108A700220814
:10302400A8000310270D280DA9002908AF002F08B8
:10303400031D25280030A3000030A2000030A100A9
:103044000030A00008002308A6002408A7002508D3
:10305400A8000310270D280DA9002908AE002E088A
:10306400031D3D280030A3000030A2000030A10061
:103074000030A0000800A117FF30A005FF30A10513
:103084000030A205A417FF30A305FF30A4050030CB
:10309400A5050030AD000030AC000030AB000030BE
:1030A400AA007F30AF0298302E07A6002608AF0290
:1030B4001830A6002608AE000130AA35AB0DAC0DC1
:1030C400AD0D890B5F2825082202031D6F282408F3
:1030D4002102031D6F2823082002031C78282308DB
:1030E400A0022408A13B2508A23B2A140130A035E4
:1030F400A10DA20D890B79280130AE02031D5E28B3
:10310400AF1FA0282F08803A973E0318922800305A
:10311400A3000030A2000030A1000030A00008008D
:103124000130AD36AC0CAB0CAA0C890B93280130E2
:10313400A6002608AF070319B928922818302F02D1
:10314400031CB6280030A3000030A2000030A10008
:103154000030A00008000130AA35AB0DAC0DAD0D58
:10316400890BAE280130AF022F08031DAD282D08AE
:10317400A3002C08A2002B08A1002A08A000080024
:1031840020005908DF005A08E0005B08E100031042
:10319400600D610DE2006208E5005C08DF005D0877
:1031A400E0005E08E1000310600D610DE2006208BA
:1031B400E40065080319EA28640865020318F12885
:1031C4006503FF3A6407DF0019305F02031CF1282E
:1031D4005C08D9005D08DA005E08DB0008006408BA
:1031E4000319080065086402031800296403FF3A00
:1031F4006507DF0019305F02031808000630DF009E
:103204005F08E300DB1BE317DE1B6317DA17FF30ED
:10321400D905FF30DA050030DB05DD17FF30DC05AA
:10322400FF30DD050030DE056408650203183C2923
:103234000130DC35DD0DDE0D890B1B290130E40284
:1032440064086506031937290130E3026308073966
:10325400031937291A290130DB36DA0CD90C890B0A
:103264002E290130DF005F08E507650864060319AD
:1032740061292D2965086402031861290130D935B3
:10328400DA0DDB0D890B41290130E502640865067E
:1032940003195D290130E3026308073903195D2925
:1032A40040290130DE36DD0CDC0C890B5429013059
:1032B400DF005F08E40765086406031D5329E31F64
:1032C4007329FF30D906FF30DA06FF30DB06013000
:1032D400D907003003180130DA0700300318013031
:1032E400DB07631F8529FF30DC06FF30DD06FF3076
:1032F400DE060130DC07003003180130DD07003042
:1033040003180130DE07E3015908DC075A08DD3DE4
:103314005B08DE3DDE1FA029FF30DC06FF30DD0642
:10332400FF30DE060130DC07003003180130DD0712
:10333400003003180130DE07E301E30A5C08A00053
:103344005D08A1005E08A2006508DF005F08A30015
:103354006308E0006008A400A331B923200020081A
:10336400D9002108DA002208DB000800203086009A
:103374008701403F2000A600413FA700423FA8002C
:10338400433FA9000310280D290DAA002A08B30001
:103394003308031DD6290030A3000030A2000030FA
:1033A400A1000030A0000800233086008701403FC0
:1033B400A600413FA700423FA800433FA9000310D5
:1033C400280D290DAA002A08B2003208031DF3298A
:1033D4000030A3000030A2000030A1000030A000A3
:1033E400080020308600870100308104413100301C
:1033F4008104413180308104413100308104203026
:1034040086008701FF3081054131FF30810541315C
:10341400FF3081054131003081052330860087016A
:103424000030810441310030810441318030810415
:10343400413100308104233086008701FF3081054B
:103444004131FF3081054131FF3081054131003088
:1034540081050030B1000030B0000030AF00003012
:10346400AE007F30B302A0303207A6002608B302B4
:103474002030A6002608B2000130AE35AF0DB00DE5
:10348400B10D890B3F2A233086008701403FA600F7
:10349400413FA700423FA800433FA90020308600D7
:1034A4008701403FAA00413FAB00423FAC00433F8D
:1034B400AD0029082D02031D692A28082C02031DCA
:1034C400692A27082B02031D692A26082A02031CDD
:1034D400862A233086008701403FA600413FA7008B
:1034E400423FA800433FA9002030860087012608F8
:1034F400810241312708813B41312808813B413118
:103504002908813B7D312E142030860087018135C6
:103514004131810D4131810D4131810D7D310130C8
:10352400B202031D3E2AB31FB32A3308803A9F3EDA
:103534000318A52A0030A3000030A2000030A10027
:103544000030A00008000130B136B00CAF0CAE0C56
:10355400890BA62A0130A6002608B3070319CC2A32
:10356400A52A20303302031CC92A0030A3000030EE
:10357400A2000030A1000030A00008000130AE35E8
:10358400AF0DB00DB10D890BC12A0130B302330860
:10359400031DC02A3108A3003008A2002F08A1008F
:1035A4002E08A000080000302000A0000030A10078
:1035B4000030A200210026082000A30021002708D3
:1035C4002000A400210028082000A500AF31C42752
:1035D4009A31031C112B210026082000A000210091
:1035E40027082000A100210028082000A2000030A4
:1035F400A3000030A4000030A500AF31C4279A31E5
:103604000318092B21302200E8000030E9000030C3
:103614002100A6000030A7000030A8000800210007
:103624002608AF002708B0002808B1002609A90021
:103634002709AA002809AB00A90A0319AA0A031931
:10364400AB0AC8302907B6006E302A3DB700BE3039
:103654002B3DB8000130B836B70CB60C890B2D2BB6
:103664000030A9008030AA000030AB002908AF0266
:103674002A08B03B2B08B13B0430A9002908B2004A
:103684003608AC003708AD003808AE002F0820001B
:10369400B600210030082000B700210031082000C6
:1036A400B800210036082000B900210037082000A6
:1036B400BA00210038082000BB00A7314C279A31FA
:1036C400200036082100B300200037082100B40090
:1036D400200038082100B50036082000B60021007B
:1036E40037082000B700210038082000B800210066
:1036F40033082000B900210034082000BA0021005A
:1037040035082000BB00A7314C279A312000360829
:103714002100B300200037082100B400200038083D
:103724002100B50036082000B6002100370820002B
:10373400B700210038082000B80021003308200019
:10374400B900210034082000BA0021003508200007
:10375400BB00A7314C279A31200036082100B30062
:10376400200037082100B400200038082100B500EB
:1037740000302000B600C030B7003F30B800210050
:1037840036082000B900210037082000BA002100C3
:1037940038082000BB00A7314C279A312000360896
:1037A4002100B600200037082100B70020003808A7
:1037B4002100B8003308A0003408A1003508A20095
:1037C4003608A3003708A4003808A500AE318326C4
:1037D4009A3121002008B6002108B7002208B80059
:1037E4000130B202031D422B26082000B60021003E
:1037F40027082000B700210028082000B800210075
:1038040036082000B900210037082000BA00210042
:1038140038082000BB00A7314C27200036082100BF
:10382400A600200037082100A70020003808210046
:10383400A80008002100B30126082000A0002100F0
:1038440027082000A100210028082000A200003041
:10385400A3000030A4000030A500AF31C4279C3180
:103864000318512C210026082000A000210027085D
:103874002000A100210028082000A2009831032084
:103884009C31200020082100A600200021082100EE
:10389400A700200022082100A800B301B30AFA30CF
:1038A4002000B6002230B7003E30B80021002608C0
:1038B4002000B900210027082000BA0021002808B0
:1038C4002000BB00A7314C279C3120003608210082
:1038D400A600200037082100A70020003808210096
:1038E400A80026082000E600210027082000E700A1
:1038F400210028082000E800A53110259C31200073
:1039040066082100A000200067082100A100200013
:1039140068082100A2002608A3002708A40028089C
:10392400A500AE3183269C3121002008A600210881
:10393400A7002208A80000302000B6008030B7009D
:103944004030B800210026082000B90021002708D3
:103954002000BA00210028082000BB00A7314C2712
:103964009C31200036082100A600200037082100E1
:10397400A700200038082100A80000302000A00083
:103984000030A1004030A200210026082000A3003E
:10399400210027082000A400210028082000A500F9
:1039A400AF31C4279C310318F72C00302100A0004C
:1039B4000030A1004030A2002608A3002708A4007C
:1039C4002808A500AE3183269C3121002008A600DA
:1039D4002108A7002208A8003308031DF32C013096
:1039E400F42C0030A9002908B30000302000A00006
:1039F4008030A1003F30A200210026082000A3004F
:103A0400210027082000A400210028082000A50088
:103A1400AF31C4279C3103183B2D00302000D9005E
:103A24000030DA004030DB00210026082000A0002E
:103A3400210027082000A100210028082000A2005E
:103A4400983103209C3120002008DC002108DD008F
:103A54002208DE009831C2209C3120005908210040
:103A6400A60020005A082100A70020005B082100BE
:103A7400A800210026082000B60021002708200005
:103A8400B700210028082000B800210026082000E3
:103A9400B900210027082000BA00210028082000CE
:103AA400BB00A7314C279C31200036082100B00010
:103AB400200037082100B100200038082100B2009E
:103AC40030082000E600210031082000E700210032
:103AD40032082000E800C630E900A030EA000330D4
:103AE400EB000030EC00A231F9229C312000660882
:103AF4002100AA00200067082100AB00200068080C
:103B04002100AC0004302000EB000030EC00B730A2
:103B1400E900A030EA00210030082000E60021007E
:103B240031082000E700210032082000E800A2311B
:103B3400F9229C3120006608C9006708CA00680899
:103B4400CB0021002A082000C60021002B082000F9
:103B5400C70021002C082000C800A631A3269C31F0
:103B6400200046082100AD00200047082100AE00D7
:103B7400200048082100AF002D082000B6002100D5
:103B84002E082000B70021002F082000B8002100D3
:103B940026082000B900210027082000BA002100CF
:103BA40028082000BB00A7314C279C312000360890
:103BB4002100A600200037082100A70020003808B3
:103BC4002100A80033080319080026082000A000DB
:103BD400210027082000A100210028082000A200BD
:103BE40098310320200020082100A600200021088D
:103BF4002100A700200022082100A80008002100BD
:103C040039082000A90021003A082000AA00210058
:103C14003B082000AB00AD3172259E3120002908FD
:103C24002100C50020002A082100C60020002B081E
:103C34002100C70000302000A0008030A1003F30E8
:103C4400A200210045082000A3002100460820000E
:103C5400A400210047082000A500AF31C4279E31ED
:103C64000318412E21302200E8000030E900003022
:103C74002100B9000030BA000030BB000800003059
:103C84002100BC008030BD003F30BE000030200069
:103C9400D9008030DA003F30DB00210039082000F1
:103CA400B90021003A082000BA0021003B08200096
:103CB400BB00210039082000B60021003A0820008A
:103CC400B70021003B082000B800A7314C279E31E3
:103CD40020003608A0003708A1003808A200983157
:103CE40003209E3120002008DC002108DD0022088A
:103CF400DE009831C2209E31200059082100BF0007
:103D040020005A082100C00020005B082100C100E7
:103D14003F08A6004008A7004108A8009A31D52210
:103D24009E3121002608CB002708CC002808CD00AE
:103D340039082000A90021003A082000AA00210027
:103D44003B082000AB00AD3172259E3120002908CC
:103D54002100C50020002A082100C60020002B08ED
:103D64002100C70045082000A000210046082000CB
:103D7400A100210047082000A200C330A300353071
:103D8400A4003F30A500AF31C4279E310318012F92
:103D940021004B082000C60021004C082000C70069
:103DA40021004D082000C800210039082000C90066
:103DB40021003A082000CA0021003B082000CB0063
:103DC400A631A3269E31200046082100CE00200003
:103DD40047082100CF00200048082100D0004E08E9
:103DE400A0004F08A1005008A20088310220210041
:103DF4002008B9002108BA002208BB0008002100ED
:103E040039082000A00021003A082000A100210068
:103E14003B082000A2000030A3000030A4000030C2
:103E2400A500AF31C4279E3103189D2F21004B08F4
:103E34002000A00021004C082000A10021004D0812
:103E44002000A200983103209E3120002008C900E0
:103E54002108CA002208CB00210039082000C6002E
:103E640021003A082000C70021003B082000C800B8
:103E7400A631A3269E31200046082100CE00200052
:103E840047082100CF00200048082100D0004E0838
:103E9400A0004F08A1005008A200883102209E31E2
:103EA40021002008C8002108C9002208CA004808C7
:103EB4002000A000210049082000A10021004A0898
:103EC4002000A200983103209E3120002008DC004D
:103ED4002108DD002208DE001030D900C930DA00E4
:103EE4003F30DB009831C2209E3120005908210068
:103EF400C20020005A082100C30020005B082100F2
:103F0400C40042082000A000210043082000A100B2
:103F1400210044082000A20098310320200020083A
:103F24002100B900200021082100BA002000220845
:103F34002100BB00080021004B082000C90021001B
:103F44004C082000CA0021004D082000CB002100AD
:103F540039082000C60021003A082000C7002100CB
:103F64003B082000C800A631A3269E312000460845
:103F74002100CE00200047082100CF00200048087F
:103F84002100D0004E08A0004F08A1005008A20054
:103F9400883102209E3121002008C8002108C90070
:103FA4002208CA0010302000D900C930DA003F309E
:103FB400DB00210048082000A0002100490820005F
:103FC400A10021004A082000A200983103209E315C
:103FD40020002008DC002108DD002208DE009831E2
:103FE400C220200059082100B90020005A082100ED
:103FF400BA0020005B082100BB0008000134003433
:10400400003400340A34003400340034643400349E
:1040140000340034E83403340034003410342734DA
:1040240000340034A0348634013400344034423443
:104034000F34003480349634983400340034E1343E
:10404400F53405340034CA349A343B3400348034B3
:104054003F34CD34CC343D34D73423343C3412345F
:1040640083343A34B734D1343834C634273437340B
:10407400383486343534C034D6343334CC342B34E9
:104084003234703489343034E734DB342E34E5345C
:104094003C341E344234A2340D34003480343F3472
:1040A4000034203441340034C834423400347A3487
:1040B400443440341C3446345034C33447342434F8
:1040C40074344934973418344B34BC34BE344C34CF
:1040D4006B346E344E340334153450347934AD3487
:1040E4006034F3344934713401340034003400341E
:1040F400103400340034003400340134003400340B
:1041040000341034003400340034003401340034FA
:1041140000340034103400340034003400340134EA
:1041240000340034003410343C34043442349F34BA
:104134006A3442349034013442344D34BB34403414
:10414400EC3447343E348E341F34BB343C340434B2
:1041540042345A348B3442340434443442349C342C
:104164004F344134003480343F34F4344A344834D6
:1041740095349534C734C134DC344534DC346D347F
:10418400C334B334333440343434013448349D3488
:10419400B03445340034DA344234003480343F34AB
:1041A400643469347334743461346E346334653420
:1041B40020343D34203425346634203461346E3464
:1041C40067346C34653420343D342034253466340B
:1041D40020340034303431343234333434343534EC
:1041E4003634373438343934413442344334443443
:1041F400453446340034483465346C346C346F349C
:10420400203457346F3472346C34643421342034A1
:104214002034203420340034483465346C346C3415
:104224006F34203457346F3472346C346434213432
:104234000A34003463346F3475346E347434203487
:104244003D34203425345834203400346C346F34F5
:104254006E34313420343D34203425346634003413
:104264006C3461347434313420343D342034253496
:10427400663400346C346F346E34323420343D345C
:1042840020342534663400346C346134743432346C
:1042940020343D3420342534663400342000A10019
:1042A400A001A00A20302106031961290E30210241
:1042B400031860290930210203186129A001200C88
:1042C40008002000E4018E30E1006108E300E01FF3
:1042D4007829DD09DE09DF09E009DD0A0319DE0AB0
:1042E4000319DF0A0319E00AE401E40AFF30600558
:1042F400031988290130E036DF0CDE0CDD0C890B54
:104304007D290130E1006108E30778295D08A000F8
:104314005E08A1005F08A2006308E1006108A30031
:104324006408E2006208A400A331B9232000200835
:10433400DD002108DE002208DF000800210051080A
:10434400B9005208BA005308BB009E310126A131BE
:1043540021003908D4003A08D5003B08D6001030B3
:104364002000D900C930DA003F30DB0021005408B6
:104374002000A000210055082000A10021005608BB
:104384002000A20098310320A13120002008DC0085
:104394002108DD002208DE009831C22020005908DF
:1043A4002100D10020005A082100D20020005B081F
:1043B4002100D300080020006508A0006608A100C1
:1043C4006708A2006C30E8006808A300AF311A2720
:1043D400A1312000ED1FF5290030E5000030E60092
:1043E4000030E700080000306D02153003196C023C
:1043F400031808006508CF006608D0006708D100DC
:10440400A5319525A13120005208E0005108DF00B4
:104414005008DE004F08DD00A131632120005D0853
:10442400E9005E08EA005F08EB006908E5006A0835
:10443400E6006B08E700080020002308220421049A
:1044440020040319582AA901A90AA31B352A0130FB
:10445400A035A10DA20DA30D890B2A2A0130A800B5
:104464002808A907272A23082702031D432A22080C
:104474002602031D432A21082502031D432A20087E
:104484002402031C4D2A2008A4022108A53B22086B
:10449400A63B2308A73B0130A336A20CA10CA00C19
:1044A400890B4E2A0130A902031D352A2708A300CF
:1044B4002608A2002508A1002408A0000800200066
:1044C400A601A31F6C2AA209A309A20A0319A30A1D
:1044D400A601A60AA11F732AA009A109A00A03190B
:1044E400A10A2008210403199A2AA501A50AA11BDF
:1044F400852A0130A035A10D890B7C2A0130A40046
:104504002408A507792A21082302031D8B2A2008E1
:104514002202031C912A2008A2022108A33B013095
:10452400A136A00C890B922A0130A502031D852A0D
:1045340026080319A22AA209A309A20A0319A30A95
:104544002308A1002208A00008002000AD01A81F34
:10455400B22AA709A809A70A0319A80AAD01AD0A36
:10456400AA1FBD2AA909AA09A90A0319AA0A01307E
:10457400AB002B08AD06AE01AF01270828040319D0
:10458400EC2AAC01AC0AA81BD12A0130A735A80D2E
:10459400890BC82A0130AB002B08AC07C52A0130AF
:1045A400AE35AF0D890BD22A28082A02031DDC2A56
:1045B40027082902031CE32A2708A9022808AA3B82
:1045C4002E140130A836A70C890BE42A0130AC0262
:1045D400031DD12A2D080319F42AAE09AF09AE0A26
:1045E4000319AF0A2F08A8002E08A700080020000E
:1045F4006C08B1006B08B0000330B2000030B300A7
:10460400AC31B924A23120006908300784006A085B
:10461400313D8500003FED00013FEE00023FEF0019
:104624006B086C040319522BFF30EB07FF30EC3D91
:104634006C08B1006B08B0000330B2000030B30066
:10464400AC31B924A23120006908300784006A081B
:10465400313D8500003FD900013FDA00023FDB0015
:104664006D08B6006E08B7006F08B8006608B90098
:104674006708BA006808BB00A7314C27A2312000A4
:104684003608DC003708DD003808DE009831C22027
:10469400A23120005908ED005A08EE005B08112BE6
:1046A4006D08E6006E08E7006F08E80008002000C7
:1046B400A701A601A60A2300A00120002008860065
:1046C400210887000108031DAD2B8C30860027309C
:1046D40087000030C03F08002008860021088700BA
:1046E40001082206031D8C2B27088C3E86008701B7
:1046F4002730873D81012708013EA3002608A03EFC
:10470400860001308700230881000130A3002308BC
:10471400A6079E2B20088600210887000108A30015
:1047240027088C3EA400A5012730A53D2408860057
:1047340025088700230881000130A0070030A13D2F
:104744000130A3002308A70720088600210887005A
:1047540001080319B12B63302702031C6E2B2708B1
:104764008C3E860087012730873D810108002000A8
:1047740023080319C22B220821042004031DD32B70
:104784000030A0000030A1000030A2000800013079
:10479400A5002508A3070130A236A10CA00C890BA3
:1047A400CE2BFE3022050319EC2BC92B0130A500BA
:1047B4002508A3070130A007003003180130A10722
:1047C400003003180130A2070130A236A10CA00C5E
:1047D400890BE72BFF3022050319F92BD82B013065
:1047E400A3020130A035A10DA20D890BF42BA11B4E
:1047F400FF2B023023020318F12B2318072CFF3060
:10480400A0057F30A105FF30A2050310A30C2308E7
:10481400A500A601A7011030A535A60DA70D890B8B
:104824000E2C2508A0042608A1042708A2042408A5
:1048340003190800A21708002000A40021000F108B
:104844008F100F118F1120002408A2000430A2360B
:10485400890B292C0F082206FE3922068F00240812
:10486400A2000530A236890B342C2208A300A30D24
:104874000F082306FD3923068F002408A200063002
:10488400A236890B422C2208A300A30DA30D0F0806
:104894002306FB3923068F002408A2000730A23622
:1048A400890B512C2208A300A30DA30DA30D0F08FF
:1048B4002306F73923068F00AC311424A4310130C8
:1048C40020002405A2000F082206FE3922068F00CC
:1048D4002436A200A20D0F082206FD3922068F00FD
:1048E4002408A2000230A236890B752C2208A300EA
:1048F400A30DA30D0F082306FB3923068F002408FC
:10490400A2000330A236890B842C2208A300A30D35
:10491400A30DA30D0F082306F73923068F00AC312E
:104924001424080010302000A0004930A1004030B9
:10493400A200210034082000A30021003508200033
:10494400A400210036082000A500AF31C427A431FB
:104954000318DE2CCC302000D9009630DA00C030A9
:10496400DB00210034082000DC0021003508200091
:10497400DD00210036082000DE009831C220A43179
:10498400200059082100B70020005A082100B8006F
:1049940020005B082100B9003708A6003808A700EA
:1049A4003908A8009C311C2421002608B4002708DB
:1049B400B5002808B600080010302000D900C9301E
:1049C400DA003F30DB00210034082000DC00210045
:1049D40035082000DD00210036082000DE00983173
:1049E400C220A431200059082100B70020005A0831
:1049F4002100B80020005B082100B9003708A60098
:104A04003808A7003908A8009C311C242100260876
:104A1400B4002708B5002808B6000800200066087E
:104A2400A0006708A1006808A2006D30E9006908C9
:104A3400A300AF311A27A5312000EE1F422D6608CE
:104A4400A0006708A1006808A2000030A30000309D
:104A5400A4000030A500AF31C427A53103183A2DB6
:104A640000302000E6008030E700BF30E800080096
:104A740000302000E6000030E7000030E8000800C5
:104A840000306E02153003196D0203180800660821
:104A9400CF006708D0006808D100A5319525A5315D
:104AA40020005208E0005108DF005008DE004F08E3
:104AB400DD00A1316321A53120005D08EA005E0814
:104AC400EB005F08EC006608A0006708A100680816
:104AD400A2006A08A3006B08A4006C08A500AF310B
:104AE400C427A53103188D2D00302000D900803053
:104AF400DA00BF30DB006A08DC006B08DD006C08FC
:104B0400DE009831C22020005908E6005A08E70068
:104B14005B08E800080020006A08E6006B08E7006C
:104B24006C08E800080020004F08D3005008D400A7
:104B34005108D5000310540D550DD6005608DC005D
:104B44005C08031DAE2D0030D2000030D1000030CF
:104B5400D0000030CF0008004F08D3005008D40024
:104B64005108D5001730D536D40CD30C890BB52D8C
:104B74005308D6005608D700D017FF30CF05FF30B2
:104B8400D0050030D1054F08D8005008D90051088D
:104B9400DA00DB018E30DC02DC1FEC2D5C08803A8D
:104BA4008F3E0318DE2D0030D2000030D1000030DB
:104BB400D0000030CF0008000130DB36DA0CD90C0D
:104BC400D80C890BDF2D0130D3005308DC070319FF
:104BD400052EDE2D18305C02031C022E0030D2009C
:104BE4000030D1000030D0000030CF000800013088
:104BF400D835D90DDA0DDB0D890BFA2D0130DC0225
:104C04005C08031DF92D57080319132ED809D90977
:104C1400DA09DB09D80A0319D90A0319DA0A0319CC
:104C2400DB0A5B08D2005A08D1005908D0005808A2
:104C3400CF000800210023082000C600210024081A
:104C44002000C700210025082000C80021002008FA
:104C54002000C900210021082000CA0021002208E8
:104C64002000CB00A631A326A6312000460821004F
:104C7400A600200047082100A700200048082100C2
:104C8400A80026082000E500210027082000E600EF
:104C9400210028082000E700A131DD21A6312000F1
:104CA40065082100A600200066082100A700200056
:104CB40067082100A80020082000D900210021084D
:104CC4002000DA00210022082000DB002100260851
:104CD4002000B900210027082000BA00210028087C
:104CE4002000BB00210023082000B6002100240876
:104CF4002000B700210025082000B800A7314C2768
:104D0400A63120003608A0003708A1003808A20008
:104D140098310320A63120002008DC002108DD00A2
:104D24002208DE009831C220200059082100A0008A
:104D340020005A082100A10020005B082100A200E5
:104D4400080020004908CC004A08CD004B08CE00DA
:104D540003104D0D4E0DCF004F08D4005408031D11
:104D6400BA2E0030C6000030C7000030C80008006A
:104D74004608CC004708CD004808CE0003104D0D6E
:104D84004E0DCF004F08D5005508031DD02E00301E
:104D9400C6000030C7000030C80008000030D10051
:104DA4000030D2000030D30089305507CC004C08C5
:104DB400D4024908CC004A08CD004B08CE0010307C
:104DC400CE36CD0CCC0C890BE22E4C08CF004F080C
:104DD400D5004608CC004708CD004808CE00103066
:104DE400CE36CD0CCC0C890BF22E4C08CF004F08DC
:104DF400D5068030CC004C08D505CA17FF30C9054C
:104E0400FF30CA050030CB05C717FF30C605FF3099
:104E1400C7050030C8051830CC004C08D00001305C
:104E2400D135D20DD30D890B122F48084B02031D27
:104E3400212F47084A02031D212F46084902031C5B
:104E44002A2F4608C9024708CA3B4808CB3B5114DD
:104E54000130C935CA0DCB0D890B2B2F0130D0027F
:104E6400031D112F5108A0005208A1005308A200ED
:104E74005408CC004C08A3005508CD004D08A400EC
:104E8400A331B92320002008C6002108C700220846
:104E9400C800080020003608BC003708BD003808E8
:104EA400BE0003103D0D3E0DBF003F08C00040088A
:104EB400031D632F0030B6000030B7000030B80087
:104EC40008003908BC003A08BD003B08BE000310C6
:104ED4003D0D3E0DBF003F08C5004508031D792F59
:104EE4000030B6000030B7000030B80008004508B4
:104EF4007B3EBC003C08C0073608BC003708BD0038
:104F04003808BE001030BE36BD0CBC0C890B852F92
:104F14003C08BF003F08C5003908BC003A08BD0082
:104F24003B08BE001030BE36BD0CBC0C890B952F5F
:104F34003C08BF003F08C5068030BC003C08C505DE
:104F4400B717BA17FF30B905FF30BA050030BB05F3
:104F54000030C1000030C2000030C3000730BC0084
:104F64003C08C400361CBC2F3908C1073A08C23DAE
:104F74003B08C33D0130B836B70CB60C890BBD2FC6
:104F84000130B935BA0DBB0D890BC32F0130C402F2
:104F9400031DB42F0930BC003C08C400361CD82FB4
:104FA4003908C1073A08C23D3B08C33D0130B83651
:104FB400B70CB60C890BD92F0130C336C20CC10C07
:104FC400890BDF2F0130C402031DD02F4108A0003C
:104FD4004208A1004308A2004008BC003C08A3000A
:104FE4004508BD003D08A400A331B92320002008D2
:0C4FF400B6002108B7002208B800080031
:1056320083302200970008007A30210099009A01F5
:10564200980108002400940120309500920108007E
:105652003C30250093007F309100920108003C30DD
:1056620025009A007F309800990108003C302600FE
:1056720093007F30910092010800013021009D00CB
:1056820003309E009F019C019B01080020009C01A9
:10569200FF309B009A0191109831002008002000F1
:1056A200A50021008D1020008D148D148D148D14F1
:1056B2000D102508A4311E2408002000A100A0011D
:1056C2003A30210203186B2B30302102031C6B2B62
:1056D200A001A00A200C080021001508C0391338C7
:1056E20095000630200095000630A0002008210019
:1056F200E9000B118B16080020006D08E6006C080B
:10570200E500E7018931792120006508EC0066088F
:10571200ED006708EE0008002000A300A201231C90
:10572200962B2008A1002108A2070310A00D031048
:10573200A30C2308031D902B220808002000A700B9
:1057420021008D1020008D108D108D100D10270856
:10575200A4311E24AB3101302000A3000030A4008C
:10576200AD31952508002000220886002308870015
:105772000108AD31B925AB3101302000A20700305C
:10578200A33D2208860023088700010803190800A8
:10579200B42B200022088400230885000008AD31C4
:1057A200B925AB3101302000A2070030A33D220809
:1057B200840023088500120003190800CA2B7A0806
:1057C2000319EC2B01302100DE020030DF3B5E08C2
:1057D2005F040319FA012100670803190800013068
:1057E200E0020030E13B60086104031D0800E701AC
:1057F20008000B11210069082000950001302100EA
:10580200DC070030DD3D00305D02643003195C02CC
:10581200031C112C80310320AB312100DC01DD019E
:10582200AD313025080020000D14A10114302102F1
:105832000318232C0130A0002008A10714302102F4
:10584200031C1B2C0D10A101643021020318080057
:105852000130A0002008A107252C2100911211126D
:10586200483023009F0080309D0006309E00223089
:105872009B009C01F9012100E60108302000A000F4
:1058820020082100E800E401E501F8019116080072
:1058920023009D1C4E2C1D121D161908F00021001C
:1058A2006408BE3E86000130870070088100013026
:1058B200F0007008E407083064020318E4010130C4
:1058C200F0007008F8070800F10178080319662C47
:1058D200210091126508BE3E860001308700010852
:1058E200F0007008F1000130F0007008E5070830A0
:1058F20065020318E5010130F802911671080800EB
:1059020020002A082B07AB319F23AC312000280846
:105912008600290887000108AB315023AC310130E1
:105922002000A8070030A93D280886002908870022
:10593200010803190800872C20002A082B07AB3125
:105942009F23AC3120002808840029088500000824
:10595200AB315023AC3101302000A8070030A93D03
:105962002808840029088500120003190800A32CC6
:105972002000B401B501301CC22C3208B407330830
:10598200B53D0130B235B30D890BC32C0130B136B0
:10599200B00C890BC82C30083104031DBC2C35080F
:1059A200B1003408B0000800083021006802031872
:1059B200F02C6608C63E86000130870001082300ED
:1059C2009A000130F00070082100E60708306602F4
:1059D2000318E6010130F0007008E8070800111210
:1059E20008000030200021020330031920020318AE
:1059F200002D02302100DE000030DF00072D2108DB
:105A02002100DF00200020082100DE0001302000FC
:105A1200A2002208FA007A08031908000C2D78085F
:105A2200031908000D302300190603190800AC31D0
:105A32006524F20076080C3EF300F4012730F43DB1
:105A42007308860074088700720881000130F20032
:105A52007208F6077F30F2007208F6050800AD31D1
:105A62001025AD31AB31E023AD3101302100E20729
:105A72000030E33DF4306206031D08006303031D9A
:105A82000800031020000D1D0314031C4B2D2000E1
:105A92000D154D2D20000D112100E201E30108003A
:105AA200AB311D23AD31AE31E526AD31AB316D23C6
:105AB200AD31AB313E23AD31AB311923AD31AC3118
:105AC2002E24AD31AB312323AD31AB314723AD3180
:105AD200AB312923AD31AB313023AD31AB3137237B
:105AE200080020002908A0002A08A1002B08A20013
:105AF2000030A3000030A4000030A500AF31C4275D
:105B0200AD310318080020002908A0002A08A100CE
:105B12002B08A2009831032020002008A9002108A8
:105B2200AA002208AB000800200023082404031D59
:105B3200A12D0130A0000030A100AC31F2240800F8
:105B42002000A501A60124082602031DAA2D230870
:105B52002502031808000130A0000030A100AC317A
:105B6200F224AD3101302000A5070030A63DA42D5E
:105B72002000A100210068080319BB2D111AC62DAF
:105B82002000210823009A00DC2D11122000210898
:105B9200A0007908C63E86000130870020088100F7
:105BA2000130A0002008F907083079020318F90132
:105BB20001302100E8022100111608000030200007
:105BC200C6003430C7004330C8001030B600493038
:105BD200B7004030B8005608B9005708BA00580854
:105BE200BB00A7314C27AD3120003608C900370869
:105BF200CA003808CB00A631A32620004608D600EA
:105C02004708D7004808D800080010302000C60016
:105C12004930C7004030C8000030B6003430B70009
:105C22004330B8005608B9005708BA005808BB00FC
:105C3200A7314C27AE3120003608C9003708CA0008
:105C42003808CB00A631A32620004608D600470814
:105C5200D7004808D80008008E302000AC002C087D
:105C6200AD00FF302B050319422E0130AB36AA0CD2
:105C7200A90CA80C890B372E0130AC002C08AD07FB
:105C8200322E2808A0002908A1002A08A2002D0807
:105C9200AC002C08A300A401A331B92320002008E2
:105CA200A8002108A9002208AA0008002000A201D9
:105CB2007708A0002008A30077087606031D772E38
:105CC200812E0130A0002008A3077F30A000200809
:105CD200A30523080C3E860087012730873D010873
:105CE2007B06031D772EA201A20A812E7F30760742
:105CF200A0007F302005A10021082306031D622E8B
:105D020022080800210022082104200403198B2EF6
:105D12008030A20623082000D90021002408200098
:105D2200DA00210025082000DB00210020082000E5
:105D3200DC00210021082000DD00210022082000D3
:105D4200DE009831C220200059082100A000200066
:105D52005A082100A10020005B082100A2000800CF
:105D620020000D1021000D100F302000A300003084
:105D7200A400AD319525AE313330AB319F23AE3126
:105D820005302000A3000030A400AD319525AE31CE
:105D92003230AB319F23AE312830AB319F23AE314D
:105DA2000830AB319F23AE310130AB319F23AE318E
:105DB2000630AB319F23AE310C30AB319F23AE3175
:105DC2008030AB319F23080022008C013F3021003C
:105DD2008C003F3023008C0024008C0122008D01B6
:105DE20021008D0123008D0124008D0122008E01EE
:105DF200D13021008E00013023008E0024008E015C
:105E020022008F01F03021008F0023008F01240037
:105E12008F01220090010E302100900006302300F5
:105E22009000240090012100951722009D019C0101
:105E320008002000220821042004031D272F230824
:105E4200860087010030C03FC13F080022087F3929
:105E5200A400A501A435A50D230886008701240806
:105E6200C03F2508C13F210D210D0139A400A50124
:105E72002308860087012408810441312508810412
:105E8200230886008701823081074131FF30813D3E
:105E92007F31220880393F38A200A1130800200078
:105EA2002208FF3EA03E8600013087000108A300C1
:105EB2002308A500A401633025020318842F2508B6
:105EC2008C3E860087012730873D0108A300200809
:105ED2008600210887002308810025088C3E860061
:105EE20087012730873D01080319842F0130A30061
:105EF2002308A4070130A0070030A13D0130A30010
:105F02002308A5075C2F200886002108870081014D
:105F120008002000A301AB2F77080C3E8600870102
:105F22002730873D0108A20020088600210887004B
:105F3200220881000130A2002208F7070130A007E1
:105F42000030A13D0130A2002208A3077F30A20049
:105F52002208F705770876060319BE2F7708F70A95
:105F62000C3E860087012730873D01087B06031D12
:105F72008D2F7F30A2002208F70520088600210815
:105F82008700810108002000A21FDB2F2009A60044
:105F92002109A7002209A800A60A0319A70A0319C2
:105FA200A80A00302607A0000030273DA10080305B
:105FB200283DA200A51FF12F2309A6002409A7004E
:105FC2002509A800A60A0319A70A0319A80A00307E
:105FD2002607A3000030273DA4008030283DA500FD
:105FE2008030A2068030A50625082202031D080083
:0E5FF20024082102031D0800230820020800D5
:020000040001F9
:04000E00E4FFFFDF2D
:00000001FF
